:100000000C9463000C948B000C948B000C945D0496
:100010000C945D040C945D040C948B000C948B0088
:100020000C948B000C948B000C948B000C948B0024
:100030000C948B000C948B000C948B000C948B0014
:100040000C9413040C948B000C94E1030C94BB03EC
:100050000C948B000C948B000C948B000C948B00F4
:100060000C948B000C948B000000000024002700EF
:100070002A0000000008000201000003040700003D
:1000800000000000000000000000230026002900FE
:1000900000000000250028002B00040404040404D0
:1000A0000404020202020202030303030303010227
:1000B00004081020408001020408102001020408F6
:1000C0001020D5049E0711241FBECFEFD8E0DEBF5D
:1000D000CDBF11E0A0E0B1E0EEECF5E102C005908B
:1000E0000D92A035B107D9F722E0A0E5B1E001C03B
:1000F0001D92A636B207E1F710E0C2E6D0E004C0D8
:100100002197FE010E94E207C136D107C9F70E947C
:1001100080050C94DA0A0C940000AF92BF92CF9243
:10012000DF92EF92FF920F931F93CF93DF936C01B7
:100130007B018B01040F151FEB015E01AE18BF0898
:10014000C017D10759F06991D601ED91FC9101904A
:10015000F081E02DC6010995892B79F7C501DF9162
:10016000CF911F910F91FF90EF90DF90CF90BF90B4
:10017000AF900895FC01538D448D252F30E0842FDE
:1001800090E0821B930B541710F0CF9608950197BF
:100190000895FC01918D828D981761F0A28DAE0FAC
:1001A000BF2FB11D5D968C91928D9F5F9F73928F33
:1001B00090E008958FEF9FEF0895FC01918D828D5F
:1001C000981731F0828DE80FF11D858D90E008952C
:1001D0008FEF9FEF0895FC01918D228D892F90E084
:1001E000805C9F4F821B91098F73992708958AEA3B
:1001F00091E00E94EB0021E0892B09F420E0822F9E
:10020000089580E090E0892B29F00E94F700811189
:100210000C9400000895FC01A48DA80FB92FB11D06
:10022000A35ABF4F2C91848D90E001968F7399272C
:10023000848FA689B7892C93A089B1898C9183700A
:1002400080648C93938D848D981306C00288F38903
:10025000E02D80818F7D80830895EF92FF920F9330
:100260001F93CF93DF93EC0181E0888F9B8D8C8D62
:1002700098131AC0E889F989808185FF15C09FB756
:10028000F894EE89FF896083E889F9898081837019
:10029000806480839FBF81E090E0DF91CF911F91C8
:1002A0000F91FF90EF900895F62E0B8D10E00F5FE9
:1002B0001F4F0F731127E02E8C8D8E110CC00FB6BF
:1002C00007FCFACFE889F989808185FFF5CFCE0157
:1002D0000E940B01F1CFEB8DEC0FFD2FF11DE35AC6
:1002E000FF4FF0829FB7F8940B8FEA89FB898081DA
:1002F0008062CFCFCF93DF93EC01888D8823B9F054
:10030000AA89BB89E889F9898C9185FD03C0808120
:1003100086FD0DC00FB607FCF7CF8C9185FFF2CF9D
:10032000808185FFEDCFCE010E940B01E9CFDF91E7
:10033000CF91089590E0FC01EE58FF4F2491FC010D
:10034000E255FF4F3491FC01E656FF4FE491EE2356
:10035000C9F0222339F0233001F1A8F4213019F13A
:10036000223029F1F0E0EE0FFF1FE057FF4FA5917B
:10037000B4918FB7F894EC91611126C030953E236B
:100380003C938FBF08952730A9F02830C9F024305E
:1003900049F7809180008F7D03C0809180008F7726
:1003A00080938000DFCF84B58F7784BDDBCF84B5A9
:1003B0008F7DFBCF8091B0008F778093B000D2CF3C
:1003C0008091B0008F7DF9CF3E2BDACFCF93DF93B2
:1003D00090E0FC01E255FF4F249186569F4FFC01AF
:1003E00084918823D1F090E0880F991FFC01E8598F
:1003F000FF4FA591B491FC01E057FF4FC591D491F7
:1004000061110EC09FB7F8948C91E22FE0958E2376
:100410008C932881E223E8839FBFDF91CF910895D9
:100420008FB7F894EC91E22BEC938FBFF6CF20912D
:100430009F013091A0012817390771F490919D0117
:1004400080919E01981741F0E0919D01F0E0E85AFB
:10045000FE4F808190E008958FEF9FEF08950895FB
:10046000EF92FF920F931F93CF93DF93DC015C9683
:10047000ED90FC905D97E114F10479F481E090E057
:1004800013969C938E93129790E080E0DF91CF912A
:100490001F910F91FF90EF9008955196ED91FC916F
:1004A000529750968C915097982F90950FB75E96D3
:1004B0002C915E97122F127021FD6095F894208187
:1004C000112319F1282B2083E7012197F1F728E068
:1004D000462F50E0308160FF1AC0382B3083E7018F
:1004E0002197F1F7BA0175956795215089F7112386
:1004F00081F08081892380830FBF5C968D919C91D0
:100500000197F1F781E090E0C1CF2923DCCF3923B7
:10051000E5CF9081892BEFCF20919F013091A001F1
:100520002817390771F480919E0120919D0190E078
:10053000805C9F4F821B910960E470E00E94BA07C3
:10054000089590E080E0089520919F013091A001EE
:1005500028173907B9F490919D0180919E01981751
:1005600089F0E0919D01F0E0E85AFE4F80812091F2
:100570009D0130E02F5F3F4F2F73332720939D0164
:1005800090E008958FEF9FEF089590E080E0089548
:100590001F93CF93DF93C4E0D0E011E0FE01E45B52
:1005A000FE4F608161278C2F0E949A012196CC30EA
:1005B000D105A1F7DF91CF911F91089530E020E0A0
:1005C000982F9170F901E05BFE4F908386952F5F25
:1005D0003F4F28303105A1F70C94C802FB01019070
:1005E0000020E9F73197AF01461B570BDC01ED9175
:1005F000FC910280F381E02D09940F931F93CF9318
:10060000DF93EC010E94EE028C0164E271E0CE0106
:100610000E94EE02800F911FDF91CF911F910F91E9
:100620000895EF92FF920F931F93CF93DF93CDB76F
:10063000DEB72A970FB6F894DEBF0FBECDBF8C0190
:10064000DC0111962C91422F022E000C550BCA0191
:10065000C0978130910534F08930910544F0889736
:1006600009F448C062E371E08AEA91E034C05F9324
:100670002F9387E291E09F938F93FE0131967F0144
:10068000FF93EF930E940208B701C8010E94E80798
:1006900021E00F900F900F900F900F900F90892BEB
:1006A00009F420E0D8011196EC910E2E000CFF0BFE
:1006B000E15EFE4F8081821721F0208381E08093EC
:1006C000A5016EE271E08AEA91E00E94FD026EE20D
:1006D00071E087E492E00E94FD022A960FB6F8943A
:1006E000DEBF0FBECDBFDF91CF911F910F91FF9065
:1006F000EF9008951F9288E58F9387E291E09F9392
:100700008F93FE0131967F01FF93EF930E940208C1
:10071000B701C8010E94E8070F900F900F900F904B
:100720000F900F90892BB1F081E08093500180935E
:10073000510180935201809353018093540180931F
:100740005501809356018093570181E08093A50164
:10075000B801B9CF1092500110925101109252017C
:1007600010925301109254011092550110925601AB
:1007700010925701EACF1F920F920FB60F921124D9
:100780002F933F934F935F936F937F938F939F9399
:10079000AF93BF93EF93FF938AEA91E00E940B011E
:1007A000FF91EF91BF91AF919F918F917F916F9149
:1007B0005F914F913F912F910F900FBE0F901F901F
:1007C00018951F920F920FB60F9211242F938F93AB
:1007D0009F93EF93FF93E091BA01F091BB01808169
:1007E000E091C001F091C10182FD1BC09081809118
:1007F000C3018F5F8F732091C401821741F0E09194
:10080000C301F0E0E655FE4F958F8093C301FF9141
:10081000EF919F918F912F910F900FBE0F901F908E
:1008200018958081F4CF1F920F920FB60F9211246A
:100830002F933F938F939F93AF93BF938091A10189
:100840009091A201A091A301B091A40130919C01CB
:1008500023E0230F2D3758F50196A11DB11D2093DC
:100860009C018093A1019093A201A093A301B09356
:10087000A4018091980190919901A0919A01B09161
:100880009B010196A11DB11D809398019093990140
:10089000A0939A01B0939B01BF91AF919F918F91CB
:1008A0003F912F910F900FBE0F901F90189526E843
:1008B000230F0296A11DB11DD2CF1F920F920FB62A
:1008C0000F9211242F933F934F935F936F937F93D6
:1008D0008F939F93AF93BF93EF93FF93E0919F010B
:1008E000F091A001309749F0A685B7858585968D52
:1008F00091FF14C09C918923A1F4FF91EF91BF91C6
:10090000AF919F918F917F916F915F914F913F91A7
:100910002F910F900FBE0F901F9018959C918923D7
:1009200061F7A389B4899C918589809589238C93EB
:10093000868997890197F1F7608D718DA685B785B6
:10094000558538E020E0CB010197F1F7822F90E048
:1009500095958795282F4C91452309F020683150B3
:1009600091F7868D81FD209580919E0190E0019602
:100970008F73992730919D01381799F0A0919E01AE
:10098000B0E0A85ABE4F2C9380939E01828D938D28
:100990000197F1F7A389B4898C919589892B8C9360
:1009A000ACCF868D8160868FF1CF1092AD01109211
:1009B000AC0188EE93E0A0E0B0E08093AE019093AC
:1009C000AF01A093B001B093B10124E031E03093C6
:1009D000AB012093AA0125EC30E03093B7012093BE
:1009E000B60124EC30E03093B9012093B80120EC3B
:1009F00030E03093BB012093BA0121EC30E030931A
:100A0000BD012093BC0122EC30E03093BF01209364
:100A1000BE0126EC30E03093C1012093C00110925A
:100A2000C3011092C4011092C5011092C601109228
:100A30004A021092490280934B0290934C02A09379
:100A40004D02B0934E0286E191E09093480280936C
:100A5000470210925E0210925D02109260021092A4
:100A60005F02109262021092610210926402109270
:100A70006302609165026E7F6D7F6093650266958B
:100A8000617081E0682783E00E949A0161E083E061
:100A90000E94E601E1EBF0E0E491E0935702EDE91A
:100AA000F0E0E491F0E0EE0FFF1FE057FF4F85917B
:100AB0009491909359028093580260E082E00E94E2
:100AC000E6018091650281FD04C061E082E00E9440
:100AD0009A0182E080935302E0EBF0E0E491E0932E
:100AE0005402ECE9F0E0E491F0E0EE0FFF1FEA576A
:100AF000FF4F8591949190935602809355020895EB
:100B0000CF93DF93CDB7DEB7789484B5826084BD90
:100B100084B5816084BD85B5826085BD85B5816001
:100B200085BD80916E00816080936E00109281007F
:100B3000809181008260809381008091810081603A
:100B400080938100809180008160809380008091FB
:100B5000B10084608093B1008091B0008160809387
:100B6000B00080917A00846080937A0080917A004E
:100B7000826080937A0080917A00816080937A000D
:100B800080917A00806880937A001092C10014E00E
:100B900061E0812F0E94E60161E0812F0E949A01AD
:100BA0001F5F1C30A9F7E091BA01F091BB0182E010
:100BB0008083E091B601F091B7011082E091B80115
:100BC000F091B90180E180831092C201E091BE01F1
:100BD000F091BF0186E08083E091BC01F091BD01FE
:100BE000808180618083E091BC01F091BD018081B2
:100BF00088608083E091BC01F091BD0180818068B4
:100C00008083E091BC01F091BD0180818F7D808364
:100C100010926202109261021092600210925F02C2
:100C200010925E0210925D028DE991E09093640251
:100C30008093630290915302963108F047C02DEBE8
:100C400030E030935E0220935D022BE931E0309377
:100C5000600220935F022CE231E030936202209325
:100C600061022091680084E0983048F031E09E30C5
:100C700008F430E081E001C0880F3A95EAF7822B52
:100C8000809368002DE630E0983050F02BE630E09D
:100C90009E3030F02CE630E0963110F030E020E06D
:100CA00030935B0220935A02292F30E0983008F0ED
:100CB000BCC081E001C0880F9A95EAF780935C027E
:100CC00080916302909164020197F1F78091610233
:100CD00090916202892B49F1E0919F01F091A0016E
:100CE00022E0E734F20709F1309739F0A389B4899B
:100CF0009C918589809589238C93809165028E7F54
:100D00008093650210929E0110929D0187E492E00B
:100D10009093A00180939F01E0915A02F0915B02B1
:100D2000808190915C02892B80832FB7F894809109
:100D3000A1019091A201A091A301B091A4012FBFA4
:100D40008093A6019093A701A093A801B093A90155
:100D500060E471E087E492E00E94FD0280E0A82E4A
:100D600080E0B82E2FB7F8948091A1019091A20154
:100D7000A091A301B091A4012FBF4091A601509171
:100D8000A7016091A8017091A901841B950BA60B86
:100D9000B70B84369105A105B10508F4B5C02FB78E
:100DA000F8948091A1019091A201A091A301B0912A
:100DB000A4012FBF8093A6019093A701A093A8013F
:100DC000B093A9018AEA91E00E94EB00892B09F413
:100DD00050C08DB69EB68AEA91E00E94EB00782E54
:100DE00099276C0131E0C31AD108EDB7FEB7E81BB3
:100DF000F90B0FB6F894FEBF0FBEEDBF0DB71EB7CF
:100E00000F5F1F4F602E78018E2D86198715D0F445
:100E10008AEA91E00E94C900F70181937F01682F5F
:100E200087E492E00E943002EFCF9E3040F42850D9
:100E3000310981E001C0880F2A95EAF73FCF2E5093
:100E40003109F7CFF801EC0DFD1D1082F80180810A
:100E5000803519F481810E94DE02F801808182359B
:100E600019F4C8010E9411030FB6F8949EBE0FBE7C
:100E70008DBE87E492E00E948C02181619060CF0D1
:100E800043C08DB69EB687E492E00E948C02782E15
:100E900099276C01F1E0CF1AD1082DB73EB7281B76
:100EA000390B0FB6F8943EBF0FBE2DBF0DB71EB75E
:100EB0000F5F1F4F602E78018E2D8619871568F4FD
:100EC00087E492E00E94A402F70181937F01682FDA
:100ED0008AEA91E00E942D01EFCFF801EC0DFD1D93
:100EE0001082F8018081803519F481810E94DE0230
:100EF000F8018081823519F4C8010E9411030FB6F0
:100F0000F8949EBE0FBE8DBE8091A501882351F03E
:100F100065E471E08AEA91E00E94FD020E94C80245
:100F20001092A501A114B10409F41CCF0E94F7008E
:100F3000882309F417CF0E94000014CF86E191E0C6
:100F4000909348028093470280919F019091A00165
:100F50008754924071F4E0915A02F0915B029081C3
:100F600080915C028095892380831092A001109269
:100F70009F01089597FB072E16F4009407D077FD84
:100F800009D00E94CE0707FC05D03EF490958195CC
:100F90009F4F0895709561957F4F0895AA1BBB1BC5
:100FA00051E107C0AA1FBB1FA617B70710F0A61B69
:100FB000B70B881F991F5A95A9F780959095BC018A
:100FC000CD010895EE0FFF1F0590F491E02D0994D7
:100FD000FB0151915523A9F0BF01DC014D9145174B
:100FE0004111E1F759F4CD010190002049F04D91F4
:100FF00040154111C9F3FB014111EFCF81E090E0B1
:1010000001970895AEE0B0E0E8E0F8E00C94B10A92
:101010000D891E8986E08C831A8309838FEF9FE7F1
:101020009E838D83AE01475E5F4F6F89788DCE01C1
:1010300001960E9425082F813885020F131FF801A1
:1010400010822E96E4E00C94CD0AABE0B0E0EBE227
:10105000F8E00C94A30A7C013B018A01FC01178291
:101060001682838181FFC8C1CE0101965C01F70120
:101070009381F30193FD859193FF81913F01882333
:1010800009F453C1853239F493FD859193FF819121
:101090003F01853229F4B70190E00E94150AE7CF9D
:1010A000912C212C312CFFE1F31538F08B3211F10A
:1010B00090F4803209F1833229F137FC3CC020EDF5
:1010C000280F2A3050F536FE20C08AE0989E200D69
:1010D0001124922E06C08D3291F0803371F76894FE
:1010E00030F8F30193FD859193FF81913F018111C8
:1010F000DACF21C0689431F8689432F8F2CF68945E
:1011000033F8EFCF689434F8ECCFEAE02E9E200D50
:101110001124222E689435F8E4CF8E3229F436FC5F
:1011200004C1689436F8DDCF8C3619F4689437F82A
:10113000D8CF8836B1F2982F9F7D95549330E0F048
:101140008336A1F18337C1F1833509F063C02801EB
:10115000F2E04F0E511CF801C080D180692D70E083
:1011600036FC02C06FEF7FEFC6010E94FF094C0101
:10117000689437F882010AC00C5F1F4FFFE3F983C0
:1011800088248394912C6501E89437F833FE2DC0B0
:10119000522C8114910471F5552009F468CFB701E0
:1011A00080E290E00E94150A5A94F6CFF8018081FF
:1011B00089830E5F1F4FE4CF2801F2E04F0E511CD0
:1011C000F801C080D180692D70E036FC02C06FEF5D
:1011D0007FEFC6010E940A0A4C018201D5CFB701F8
:1011E00080E290E00E94150A2A942814190409F05C
:1011F000B0F7CECFF60137FC859137FE81916F01B4
:10120000B70190E00E94150A51105A94F1E08F1A2C
:101210009108BFCF843619F0893609F077C0F801FC
:1012200037FE6BC060817181828193810C5F1F4F9B
:10123000F32DFF763F2E97FF09C09095809570950E
:1012400061957F4F8F4F9F4F689437F82AE030E0C9
:10125000A5010E94450AC82ECA188C2C432C36FEC4
:101260000CC0E89440F8C91440F434FE05C032FCC8
:1012700003C0F32DFE7E4F2E892C44FE95C0FE0147
:10128000EC0DF11D8081803309F087C0242D297E6B
:10129000422E842D8870582E43FC95C040FE8FC08E
:1012A0009C2C821418F42C0C922C981844FE91C09B
:1012B000B70180E390E00E94150A42FE09C088E76A
:1012C00090E041FE02C088E590E0B7010E94150A57
:1012D000C91408F48AC0CA94D12C9FEFC91AD90A3C
:1012E000CA0CDB1CF60182916F01B70190E00E94ED
:1012F000150AAC14BD04B1F74FCF60817181072E80
:10130000000C880B990B0E5F1F4F92CFD32CE894E3
:10131000D4F82AE030E0853739F1232D297FD22E09
:101320008F3601F148F48835A9F0F701868197815D
:101330002B96E2E10C94BF0A803749F08837A9F771
:10134000D4FE02C06894D2F820E130E00DC0689469
:10135000D4F8F6CF34FE03C0822F8660D82E20E169
:1013600032E002C028E030E0F801D7FE0FC0608113
:101370007181828193810C5F1F4FA5010E94450AF4
:10138000C82ECA183D2CE89437F867CF6081718168
:1013900090E080E00E5F1F4FF0CF42FC02C08394CC
:1013A00078CF8394839475CF842D867809F471CF98
:1013B000F6CFB70180E290E00E94150A8394821470
:1013C000C0F3512C73CF522C5818821408F46ECFEE
:1013D000F8CF842D867809F47BCF8BE241FE80E242
:1013E00047FC8DE2B70190E071CFB70180E390E058
:1013F0000E94150A9A946CCF8FEF9FEF99CFFC0152
:101400000590615070400110D8F7809590958E0F2F
:101410009F1F0895FC016150704001900110D8F7A2
:10142000809590958E0F9F1F08950F931F93CF93D4
:10143000DF93182F092FEB018B8181FD09C01FEF6E
:101440000FEF812F902FDF91CF911F910F91089572
:1014500082FF14C02E813F818C819D81281739071E
:101460003CF4E881F981CF01019699838883108348
:101470008E819F8101969F838E83E3CFE885F985D6
:10148000812F0995892BA1F3DACFFA01AA272830F9
:1014900051F1203181F1E8946F936E7F6E5F7F4F41
:1014A0008F4F9F4FAF4FB1E03ED0B4E03CD0670FBD
:1014B000781F891F9A1FA11D680F791F8A1F911D10
:1014C000A11D6A0F711D811D911DA11D20D009F460
:1014D00068943F912AE0269F11243019305D3193A2
:1014E000DEF6CF010895462F4770405D4193B3E08B
:1014F0000FD0C9F7F6CF462F4F70405D4A3318F032
:10150000495D31FD4052419302D0A9F7EACFB4E0E2
:10151000A6959795879577956795BA95C9F700979A
:101520006105710508959B01AC010A2E069457953B
:10153000479537952795BA95C9F7620F731F841F92
:10154000951FA01D08952F923F924F925F926F9228
:101550007F928F929F92AF92BF92CF92DF92EF9243
:10156000FF920F931F93CF93DF93CDB7DEB7CA1BC4
:10157000DB0B0FB6F894DEBF0FBECDBF09942A88EF
:10158000398848885F846E847D848C849B84AA8497
:10159000B984C884DF80EE80FD800C811B81AA8124
:1015A000B981CE0FD11D0FB6F894DEBF0FBECDBFEF
:1015B000ED01089510E0C2E6D0E004C0FE010E94F3
:0E15C000E2072196C336D107C9F7F894FFCF92
:1015CE00000000002D018D00BA007A01EB00C90069
:1015DE00DD000000000030028D00C5022F028C02DB
:1015EE00A40217020D0A005225633A4F4E00796588
:1015FE00730023746F206A65206469766E7921000A
:10160E0052583A3F006E6173746176756A690000D4
:00000001FF
